:020000040800F2
:1000000070D0002025020008BD17000889110008E3
:100010009D170008FD040008D92400080000000016
:100020000000000000000000000000009D0100082A
:100030001D05000800000000CD010008E9220008AD
:100040003F0200083F0200083F0200083F0200088C
:100050003F0200083F0200083F0200083F0200087C
:100060003F020008E50D00083F0200083F020008BB
:100070003F0200083F0200083F0200083F0200085C
:100080003F0200083F0200083F0200083F0200084C
:100090003F0200083F0200083F0200083F0200083C
:1000A0003F0200083F0200083F0200083F0200082C
:1000B0003F0200083F0200083F0200083F0200081C
:1000C0003F0200083F0200083F0200083F0200080C
:1000D0003F0200083F0200083F0200083F020008FC
:1000E0003F0200083F0200083F0200083F020008EC
:1000F0003F0200083F0200083F0200083F020008DC
:100100003F0200083F0200083F0200083F020008CB
:100110003F0200083F0200083F0200083F020008BB
:100120003F0200083F0200083F0200083F020008AB
:100130003F020008950800083F0200083F0200083F
:100140003F0200083F0200083F0200083F0200088B
:100150003F0200083F0200083F0200083F0200087B
:100160003F0200083F0200083F0200083F0200086B
:100170003F0200083F0200083F0200083F0200085B
:100180003F0200083F020008DFF80CD000F014F92D
:1001900000480047C951000870D00020194B196869
:1001A0000868B0E8F00F80F309884FF0000080F392
:1001B00011884EF00D0E70470000000002480068E4
:1001C000006880F3088800DF08ED00E0EFF30980A5
:1001D0000C4B1A6820E9F00F106008B54FF0BF0013
:1001E00080F3118808F060FE4FF0000080F3118862
:1001F000BDE8084019680868B0E8F00F80F3098886
:10020000704700BF7401002001B44FF0BF0080F3BD
:10021000118801BC704701B44FF0000080F31188D1
:1002200001BC70470648804706480047FEE7FEE7E6
:10023000FEE7FEE7FEE7FEE7FEE7FEE7FEE7FEE796
:10024000692300088901000840EA01039B0703D0E5
:1002500009E008C9121F08C0042AFAD203E011F805
:10026000013B00F8013B521EF9D27047D2B201E0C7
:1002700000F8012B491EFBD270470022F6E710B5AB
:1002800004460846114602462046FFF7EFFF204687
:1002900010BD30B50EE003460A4601E05B1C521C5F
:1002A0001C781578AC4201D1002CF7D115F0FF0F66
:1002B00004D0401C0278002AEDD1002030BD10B5DA
:1002C000044604E00B7800F8013B03B1491C521EC0
:1002D000F8D2204610BD0146002000E0401C0A5C18
:1002E000002AFBD1704730B504460020034600E0E9
:1002F0005B1C934203D2E05CCD5C401BF8D030BD68
:1003000070B5064602F01CF9046805460A22002171
:10031000304600F018F82C6070BD30B50B46014631
:1003200000202022012409E021FA02F59D4205D394
:1003300003FA02F5491B04FA02F52844151EA2F13E
:100340000102F1DC30BD2DE9F0470F4691468046B1
:100350000446002614F8015B2DB100F03FF8006858
:10036000405DC007F6D12B2D02D02D2D18D0641E74
:100370004A463946204600F035F827B13968A1428F
:1003800001D1C7F8008071054FF002040BD540423F
:10039000002803DD02F0D4F80460A007BDE8F08770
:1003A00046F48066E4E70028F8DA02F0C9F8046051
:1003B0006FF00040F2E70000064C074D06E0E068F1
:1003C00040F0010394E8070098471034AC42F6D39C
:1003D000FFF7DEFEE4AC000804AD000800487047FB
:1003E00078AC00082DE9F05F8246044600780027CB
:1003F000641C8B461546B946302801D09DB113E0E8
:1004000014F8010B0127782803D0582801D045B1F2
:100410000AE00DB1102D07D10027102514F8010BAB
:1004200002E0082500E00A250026B0460EE005FBA4
:10043000080005FB06F1012701EB10461FFA80F8C2
:10044000B6F5803F00D3B94614F8010B294600F0F9
:1004500018F80028EBDABBF1000F05D00FB1641ECD
:1004600000E05446CBF80040B9F1000F06D002F08E
:1004700067F802210160C81EBDE8F09F48EA064007
:10048000FAE73A2800D2303820F02002412A01D37E
:10049000A2F13700884201D34FF0FF30704770B5AA
:1004A00001EB020410F8015B15F0070301D110F80D
:1004B000013B2A1106D110F8012B03E010F8016B63
:1004C00001F8016B5B1EF9D12B0705D40023521EE6
:1004D0000FD401F8013BFAE710F8013B02F10202E8
:1004E000A1EB030303E013F8015B01F8015B521E6B
:1004F000F9D5A142D6D3002070BD000001A001F0C3
:10050000FBFFFEE70A0D204275734661756C745F50
:1005100048616E646C657220000000007047000046
:1005200008B500F0F3F84FF4A06001F07BF93D202E
:100530008DF8000002208DF8010000208DF80200E7
:1005400001208DF80300684601F03AF900F0EAFA5C
:100550001048406830B1012000F03AFDBDE8084085
:1005600000F09EBC4FF4784001F09AF800F0E4FFF0
:10057000C08809A100EB800080B200F0EFFE00F01F
:10058000DBFFC08809A100EB40004004000C00F034
:10059000E5FEFEE714000020202020457468657207
:1005A0006E657420496E6974202020002020202070
:1005B00020206661696C65642020202020200000D6
:1005C000014948617047000000900240044A002938
:1005D000D16901D0014300E08143D161704700003F
:1005E0000090024005490028886902D040F00200CE
:1005F00001E020F002008861704700000090024096
:10060000F0B5124E00244FF0004E44F2F45C551E3B
:10061000706013E000EB4413C3F800E0C4EBC417B0
:1006200007EB470701EB8707C3E901C7AC4203D2D9
:1006300003F12007DF6000E0D860641C9442E9D336
:100640000349C8600348B060F0BD0000FC00002012
:1006500000900240388F0020426811B122F0004122
:1006600001E042F000414160704700000549002868
:10067000886902D040F4005001E020F40050886105
:100680007047000000900240F0B50F4B00244FF47B
:100690008016551E186011E000EB44131E60C4EB79
:1006A000C41707EB470701EB87079F60AC4203D2F3
:1006B00003F12007DF6000E0D860641C9442EBD3B4
:1006C00002490861F0BD0000FC00002000900240DB
:1006D00002680A430260704710B501214C062046AB
:1006E00001F00CF92046BDE81040002101F006B9E8
:1006F00000E0401E0028FCD17047000002488169DC
:1007000041F4801181617047009002401CB50121C5
:1007100040F2E71001F0E6F80121880301F012F938
:100720004FF48070009003208DF8050002208DF8B2
:10073000040000208DF80600264C8DF8070069465D
:10074000204600F0D1FC012001F066FD86200090DB
:100750006946204600F0C8FC0B220121204600F02B
:1007600001FD0B220221204600F0FCFC0B22072198
:10077000204600F0F7FC3220174C009069462046D6
:1007800000F0B2FC0B220121204600F0EBFC0B2212
:100790000421204600F0E6FC0B220521204600F053
:1007A000E1FC4FF4D0400D4C00906946204600F02B
:1007B0009BFC0B221146204600F0D4FC0B220D219D
:1007C000204600F0CFFC0B220E21204600F0CAFC90
:1007D0001CBD00000000024000080240001802405A
:1007E000034A0146002052690A4200D001207047A6
:1007F00000900240034900200968C90700D0012089
:10080000704700000090024070B5214A0024254640
:10081000D2E9013118E000BF1E6805F10105B605F7
:1008200007D51E68F60504D40B6001238B6053685E
:1008300008E01E68F60510D41E68B6050DD48E6853
:10084000761C8E60DB6853601E68002E01DB052D70
:10085000E2D304604460846070BD4B608C68641CAB
:100860008C608C68012C00D10B6053681C688D680B
:10087000C4F30D44241F012D02D90968896800E0E2
:100880009968DD6855600460C0E9011370BD00001F
:10089000FC00002008B5002000904020FFF7A0FFDA
:1008A000012806D1094800236A461946006808F065
:1008B00092FC4020FFF784FE4FF48030FFF780FE6B
:1008C0000098002801D008F08FF908BDE000002052
:1008D0002DE9FF417E4E044688463069002720F00E
:1008E0001C05684601F03AF87A4901987A4A0144B1
:1008F000914202D245F0080516E07849784A014451
:10090000914202D245F00C050EE07649764A014448
:10091000914209D3754908447549884202D245F08D
:10092000040501E045F0100535614FF40042002157
:10093000404600F031FA002825D06E48FFF7D8FE77
:10094000206878B36C4D7F1C0121404600F09EF971
:10095000400701D4AF42F6D3AF4213D000274FF483
:1009600080523946404600F017FA00280BD07F1C11
:100970000121404600F08AF9800601D4AF42F6D347
:10098000AF4203D1002004B0BDE8F0811021404601
:1009900000F07CF942074FF0000104D54FF40062EB
:1009A000226201E008E02162800701D5616114E064
:1009B0004FF48040606110E0206A0021C0F3CF0254
:1009C0006069C0F34F000243404600F0E5F900289B
:1009D000D9D06FF07F40FFF78BFE31684748014068
:1009E000D4E901021043D4E903231A431043626996
:1009F0001043A2691043E2691043226A1043626AFD
:100A00001043A26A1043E26A1043226B1043626BE8
:100A1000104308433060D4E90E010843D4E91012B2
:100A200011430843A16C0843E16C0843216D08435E
:100A3000616D08437060A06DB060E06DF060B169F9
:100A40004FF641700140D4E919021043236EE26E63
:100A500042EA03421043226F1043626F104308437F
:100A6000B061D4E91E010843F061254A9169254827
:100A70000140D4E920031843D4E922352B4318431D
:100A8000D4F890301843D4F894301843D4F8983000
:100A90001843D4F89C301843D4F8A03018430843C6
:100AA0009061D4E929010843D4E92B131943084381
:100AB000D4F8B41040EA8100D4F8B810084340F4E8
:100AC00000001060106840F08000106001205AE7BC
:100AD0000080024000D3CEFEC0E1E40040F1E9FD19
:100AE00040787D0100796CFC005A6202001F0AFA0E
:100AF00080F0FA02FFFF0F00FFFF04000F8120FFCC
:100B000000900240233FDEF8054B8A8818440264B7
:100B10000A78D1F8011042EA0121416470470000CF
:100B20000080024000B5AFB001214FF0606000F0DE
:100B3000D9FEFFF7D1FD00F0D1F800BFFFF75AFE54
:100B40000128FBD0684600F0E2F801200090002068
:100B50004FF40071CDE90A10090407901190CDE916
:100B600020010E90149013900A1115902590269054
:100B700023920420CDE9280180032A9080012B9044
:100B800040122C9040002E9001216846FFF7A0FEF5
:100B90000349486001210348FFF718FD2FB000BD4D
:100BA000140000204000010005490028086802D018
:100BB00040F0040001E020F00400086070470000ED
:100BC0000080024005490028086802D040F0080073
:100BD00001E020F00800086070470000008002403B
:100BE000F0B5284D00242A681168002901DA002098
:100BF000F0BD40F2F453984213D9B0FBF3F103FB7C
:100C0000110606B1491C01290BD0C1F10107C7EB40
:100C1000C71707EB470700EB87004E1EC0F30C0019
:100C200023E0116841F040511160C0F30C005060A6
:100C3000106840F000401060D068286018E034B9B7
:100C40002F68D7F800C04CF0805CC7F800C0536034
:100C5000B44204D1176847F0005717605060176816
:100C600047F000471760D268641C8C42E7D32A60C3
:100C700005484169490703D50421416100214160CC
:100C80000120F0BDFC0000200090024030B5114A68
:100C9000002314694FF6FF7504F01C0405EAC02018
:100CA00020434FF4F86404EA8111014321F002006B
:100CB00040F001001061084811695B1CC90701D0B0
:100CC0008342F9D3834201D1002030BD506980B204
:100CD00030BD000000800240FFFF040002480168B0
:100CE00041F00101016070470090024000B5012011
:100CF000FFF768FFFFF702FD0120FFF755FF012016
:100D0000FFF7B4FC01205DF804EBFFF76BBC012199
:100D100001600021416081604FF48042C160C0E900
:100D20000412D2108161C0E9071241628162C1627E
:100D30000163416340228163C0E90F122022C0E9B0
:100D40001121C1640165416581658022C165C0E9E9
:100D500018128166C16601674167D2048167C0E9E4
:100D60001F125210C0E921211311C0E92331C0F82C
:100D70009410C0F89810C0F89C10C0E928125212C4
:100D8000C0F8A8209201C0F8AC205212C0E92C2172
:100D9000C0F8B8107047000070B5104B00241D69F2
:100DA0004FF6FF7605F01C0506EAC02028434FF4F5
:100DB000F86505EA8111014341F003005A611861A9
:100DC00007481969641CC90701D08442F9D38442D9
:100DD00001D1002070BD012070BD000000800240E4
:100DE000FFFF040010B5082000F012F8002807D01B
:100DF000012000F08FF8BDE81040082000F002B894
:100E000010BD00000149086070470000143C01401B
:100E1000064A014600201268044B0A4014331B683E
:100E20000B4202D0002A00D001207047003C014054
:100E300030B51A498379026853B30B6893430B604A
:100E40000A1D13680468A343136002790A441368F7
:100E5000046823431360114A083213680468A343EB
:100E60001360131D1C680568AC431C604479102C8A
:100E700005D021440A68006802430A6030BD116849
:100E8000046821431160196800680143196030BD8E
:100E90000079084401689143016030BD003C014085
:100EA00030B5012185B0084600F01CFD0121880302
:100EB00000F048FD00248DF8104008258DF81340FF
:100EC00003A91348039500F00FF90321002001F056
:100ED000A9F98DF804400C2000958DF80500012536
:100EE0008DF806506846FFF7A3FF4FF4A06000F0AE
:100EF00099FC09208DF808008DF809408DF80A400A
:100F00008DF80B5002A800F05BFC05B030BD00006E
:100F10000000024010B51221FFF7B8FE800430D562
:100F2000184C2078C04320704FF4784000F0B8FB94
:100F3000207888B100F000FBC08813A100EB80008E
:100F400080B200F00BFA00F0F7FAC08814A100EBB1
:100F500040004004000C10E000F0EEFAC0880AA146
:100F600000EB800080B200F0F9F900F0E5FAC088EB
:100F700011A100EB40004004000CBDE8104000F05F
:100F8000EDB910BD1400002020204E6574776F72FB
:100F90006B204361626C65206973202000000000B3
:100FA0002020202020756E706C7567676564202096
:100FB00020202020000000002020206E6F7720637A
:100FC0006F6E6E6563746564202020200000000051
:100FD00010B504461121FFF759FE40F0030211211C
:100FE0002046FFF7D9FE00280CD012212046FFF73B
:100FF0004DFE40F0200212212046FFF7CDFE0028D2
:1010000000D0012010BD00004FF0204202EB800014
:101010000029016802D041F0010101E0014A1140BC
:1010200001607047FEFF0F0030B5D0E90112114397
:10103000D0E903231A4311434269036811438269CB
:101040001143C2691143026A1143426A1143826A21
:101050001143C26A1143026B11434FF0204242F820
:1010600023108168082906D1016802EB81010B6811
:1010700043F040030B60416BD1E9003443EA0413B1
:101080008C68CD68240244EA054423430C6943EA92
:1010900004534C69896943EA04630B43016802EB1A
:1010A00081014B60C16AB1F5804F07D000686FF0D5
:1010B000704102EB8000C0F8041130BD816B006804
:1010C000D1E9003443EA04138C680D69240244EA30
:1010D000055423434C69896943EA046302EB8000A9
:1010E0000B43C0F8043130BDF0B5002201234FF0AE
:1010F000030C00BF0D6803FA02F42540A5422DD170
:10110000066854000CFA04F5AE4306600E790768D1
:10111000A6403E4306600E79012E01D0022E12D168
:101120008668AE4386604D798668A5403543856004
:10113000456803FA02F6B543456045688E799640E6
:10114000B6B235434560C56856000CFA06F7BD4394
:10115000C560CD79A540C4682543C560521C102ADE
:10116000C8D3F0BD4B07DB0E9A40C90810B500EBA1
:101170008100016A0F249C40A1430162016A11436E
:10118000016210BD0183704701A001F0B5F9FEE7CF
:101190000A0D20486172644661756C745F48616E27
:1011A000646C65722000000030B50546002440F2F2
:1011B0003F11204600F048FA4FF0D8412220088025
:1011C0004FF496304D80641C8442FBD330BD000048
:1011D0002DE9FC410121782000F084FB02258DF8E7
:1011E00004504CF233708DF8055000244E4E0090A0
:1011F0008DF806408DF8074069463046FFF774FFCA
:101200000C2200213046FFF7ADFF0C2201213046B1
:10121000FFF7A8FF0C2204213046FFF7A3FF0C22A2
:1012200005213046FFF79EFF0C2208213046FFF7CC
:1012300099FF0C2209213046FFF794FF0C220A2166
:101240003046FFF78FFF0C220E213046FFF78AFF52
:101250000C220F213046FFF785FF4FF68070334E8A
:10126000009069463046FFF73FFF0C2207213046C9
:10127000FFF778FF0C2208213046FFF773FF0C229E
:1012800009213046FFF76EFF0C220A213046FFF796
:1012900069FF0C220B213046FFF764FF0C22114638
:1012A0003046FFF75FFF0C220D213046FFF75AFF53
:1012B0000C220E213046FFF755FF0C220F2130463D
:1012C000FFF750FF1A4F0126694638460096FFF790
:1012D0000BFF0C2200213846FFF744FFE802154FB0
:1012E000009069463846FFF7FFFE0C22114638464B
:1012F000FFF738FF0121042000F0F4FA8DF80460B4
:101300008DF805508DF806408DF8074080200A4C76
:10131000009069462046FFF7E7FE80212046FFF750
:1013200031FFBDE8FC810000000C024000100240CB
:10133000001402400018024000080240064B10B49E
:101340009B68203AD2B21C68DB88534304EB43020B
:1013500010BC00F039B80000080100202DE9F04170
:1013600080460D4600240A4E4FF4A07708E021463F
:101370004046FFF7E3FFB0686D1C8088204484B2CC
:101380002A78002A01D0BC42F1D3BDE8F0810000E8
:1013900008010020F0B500240A4D07465FF004065E
:1013A00004EBC40005EBC00204EB440006EBC000F4
:1013B00081B2384600F054F8641CA4B20D2CEFD36F
:1013C000F0BD0000CCA700082DE9F04F8B469146F8
:1013D0000027064600F038F94FF0220A4FF0D848AF
:1013E0001E4D33E0A8F800A0002424E00C21B0FB3F
:1013F000F1F1CA008021914039F8172021411142B2
:1014000001D10C2805D90121A1400A4224D10C2880
:1014100022D96888012804D0B5F80200A8F8020093
:1014200008E00BEB0400401C81B2304600F00CF9E0
:10143000A8F800A0641CA8688088A042D6D8761CB2
:10144000B6B25946304600F0FFF87F1CA868C08845
:10145000B842C7D8BDE8F08F2888DFE70801002030
:101460002DE9F74F914600250446019900F0ECF86C
:101470004FF080084FF0D84C2220ACF8000000213B
:1014800005EB45064FF4784A4FF6E07B00207318D1
:1014900028FA00F219F80370174214D04FEA0B0231
:1014A000ACF80220401C0828F2D3491C0329EDD3D4
:1014B000641CE4B22046019900F0C6F86D1C182D9A
:1014C000D8D3BDE8FE8F5246EAE700B501219DB0B2
:1014D000084600F01FFA09200F9000200821CDE9EE
:1014E000100114AB129049060122139007C3032286
:1014F000CDE9170219901A90CDE91B010621CDE91B
:1015000000101021CDE9020104900902CDE9080183
:101510000590069007908900CDE90A010C900FA86C
:101520000D9016A80E906846FFF77EFD012106205B
:10153000FFF76AFD1DB000BD0148806870470000DC
:101540000801002010B500F055FA002000F032FE2E
:10155000012000F02FFE022000F02CFE032000F0FE
:1015600029FE0020FFF720FE002000F061F84FF672
:10157000FF7000F095F8FFF7DFFF12A10020FFF7E2
:10158000EDFEFFF7D9FFC08814A1FFF7E7FEFFF7D4
:10159000D3FFC08817A14004000CFFF7DFFEFFF760
:1015A000CBFFC08819A100EB400080B2FFF7D6FE48
:1015B000FFF7C2FFC088BDE810408006000EFFF7AD
:1015C000E9BE00002020535A572D53544D33324664
:1015D0003430375A47202020000000002020535488
:1015E0004D3332462D3420536572696573202020B7
:1015F00000000000426173696320576562536572A1
:101600007665722044656D6F0000000020207777BA
:10161000772E61726D6A697368752E636F6D202015
:10162000000000004FF0D841088048887047000053
:10163000014948807047000008010020014A1080DD
:1016400051807047080100200346144810B5808877
:101650000C46A0F50941893906D119464E2000F003
:1016600025F821464F2014E0A0F51341253907D174
:101670001946202000F01AF8A4F23F14604206E058
:101680002146202000F012F8A3F23F13584281B205
:101690002120BDE8104000F009B80000080100203A
:1016A0000149088070470000080100204FF0D8422F
:1016B000108051807047000000B500218BB00846B3
:1016C00006F0C0FF1F4802F0C5FE08906FF0FF0053
:1016D00002F0C0FE09901C4802F0BCFE0A900A21EC
:1016E0001220CDE90001A823C02218A103A800F010
:1016F00013FFFFF721FFC08818A1C004000CFFF7FB
:101700002DFEFFF719FFC08803A900EBC00080B2CF
:10171000FFF724FE03A917A000F0EEFE1C4A1D49A6
:1017200000208DE807000AAB09AA08A91A4804F0AE
:101730007DF9194804F0B6F9174804F0FDF90BB02B
:1017400000BD00000A12A8C00101A8C02020256425
:101750002E25642E25642E2564000000202053745D
:1017600061746963204950206164647265737320F9
:10177000202000000A0D20537461746963204950D1
:101780002061646472657373203A2025730D0A002A
:1017900081860008E93B0008C801002001A000F094
:1017A000ABFEFEE70A0D204D656D4D616E6167650C
:1017B0005F48616E646C6572200000007047000035
:1017C00070B50F21C478027801234FF0E026E4B110
:1017D000124C246804F4E064C4F5E064C4F3072404
:1017E000C4F10405E1404478AC4085780D402543C0
:1017F0000B4C29011155007800F01F018B40400966
:1018000006EB8000C0F8003170BD02F01F0083407D
:10181000500906EB8000C0F8803170BD0CED00E08F
:1018200000E400E0024908430249086070470000F4
:101830000000FA050CED00E02DE9F04186B000242F
:101840004FF4E1300090ADF80440ADF808400C26AC
:10185000ADF80640ADF80C40ADF80A606946204688
:1018600000F03AFC25208DF8100001258DF811506C
:1018700002278DF812708DF8135004A8FFF7A0FF0F
:1018800040F2255801224146144800F0ADFD4FF4C6
:1018900016400090ADF80440ADF80840ADF80640A1
:1018A000ADF80C40ADF80A606946012000F014FC68
:1018B00027208DF810008DF811508DF812708DF8DA
:1018C000135004A8FFF77CFF01224146044800F0B2
:1018D0008BFD00F00BFD06B0BDE8F081001001406B
:1018E00000480040044A0029116801D0014300E08B
:1018F000814311607047000030380240044A0029DB
:10190000116801D0014300E081431160704700007D
:1019100010380240044A0029116801D0014300E058
:10192000814311607047000038380240044A0029A2
:10193000116801D0014300E081431160704700004D
:1019400040380240044A0029116801D0014300E0F8
:1019500081431160704700004438024070B5214B4C
:101960001968214A11F00C0104D0204E042903D03B
:10197000082903D002601BE0066019E01949091F1D
:101980000C68C4F380550C6804F03F0415B1B6FB35
:10199000F4F201E0B2FBF4F20C680968C4F38814B5
:1019A0006243C1F30141491C4900B2FBF1F10160FE
:1019B00019680F4A01F0F0010909545C0168E1401F
:1019C00041601C6804F4E054A40A145D21FA04F494
:1019D00084601B6803F460435B0BD25CD140C16040
:1019E00070BD0000083802400024F40040787D01FA
:1019F000EA0000202DE9F04F8DB01822F3A16846CF
:101A0000FEF722FC1822F7A106A8FEF71DFC1427FA
:101A1000FFF7DEFBFFF759FD022001F067F8002019
:101A2000FFF700FE49F220314A1D48F6891948B1F6
:101A300040F6FF73984205D3484504D0884202D04F
:101A4000904200D04846DFF8B4834FF400454FF48D
:101A5000807AA8F804004FF4E06340F2022B40F2D1
:101A60003F1488427ED12946E520FFF71FFE012161
:101A70000020FFF71BFE51460120FFF717FE1D4611
:101A800019460220FFF712FE41F230010320FFF752
:101A90000DFE00210420FFF709FE59460820FFF73C
:101AA00005FE00210920FFF701FE00210A20FFF7B3
:101AB000FDFD00210C20FFF7F9FD00210D20FFF7AF
:101AC000F5FD00210F20FFF7F1FD00211020FFF7A9
:101AD000EDFD00211120FFF7E9FD00211220FFF7A5
:101AE000E5FD00211320FFF7E1FD142000F0FEFFCB
:101AF00041F2B0711020FFF7D9FD40F237111120EB
:101B0000FFF7D4FD052000F0F1FFA11F1220FFF721
:101B1000CDFD052000F0EAFF4FF4E8511320FFF758
:101B2000C5FD13212920FFF7C1FD052000F0DEFFD0
:101B300000212020FFF7BAFD00212120FFF7B6FD8C
:101B400007213020FFF7B2FD07213120FFF7AEFD5E
:101B500007213220FFF7AAFD07213520FFF7A6FD58
:101B6000072100E06DE03620FFF7A0FD2946372071
:101B7000FFF79CFD29463820FFF798FD29463920BC
:101B8000FFF794FD29463C20FFF790FD4FF4F851F4
:101B90003D20FFF78BFD00215020FFF787FDEF214F
:101BA0005120FFF783FD00215220FFF77FFD2146E2
:101BB0005320FFF77BFD4FF41C516020FFF776FDAB
:101BC00001216120FFF772FD00216A20FFF76EFD01
:101BD00000218020FFF76AFD00218120FFF766FDCC
:101BE00000218220FFF762FD00218320FFF75EFDC8
:101BF00000218420FFF75AFD00218520FFF756FDC4
:101C000010219020FFF752FD00219220FFF74EFD9A
:101C100003219320FFF74AFD4FF488719520FFF7C9
:101C200045FD00219720FFF741FD00219820FFF797
:101C30003DFD41F218010320FFF738FD40F273111A
:101C4000CFE140F2023648457DD101210020FFF767
:101C50002DFD00211020FFF729FD052000F046FF93
:101C600040F2332319460720FFF720FD46F27801A2
:101C70001120FFF71BFD4FF4C0610220FFF716FD96
:101C80004AF6A4010320FFF711FD00210C20FFF705
:101C90000DFD40F60C010D20FFF708FD4FF4245117
:101CA0000E20FFF703FDB8211E20FFF7FFFC42F6D0
:101CB0003F110120FFF7FAFC00211020FFF7F6FC8E
:101CC00000210520FFF7F2FC00210620FFF7EEFCC3
:101CD0004EF61C711620FFF7E9FC03211720FFF7D1
:101CE000E5FC19460720FFF7E1FCC0210B20FFF7B8
:101CF000DDFC00210F20FFF7D9FC00214120FFF778
:101D0000D5FC00214220FFF7D1FC00214820FFF73D
:101D1000CDFC21464920FFF7C9FC00214A20FFF7EE
:101D2000C5FC00214B20FFF7C1FC4FF46F4144205C
:101D3000FFF7BCFC00214520FFF7B8FC21464620F8
:101D4000FFF7B4FC00E05BE040F207713020FFF7E2
:101D5000ADFC4FF4017319463120FFF7A7FC19467B
:101D60003220FFF7A3FC40F2025421463320FFF754
:101D70009DFC611D3420FFF799FC19463520FFF7C3
:101D800095FC19463620FFF791FC21463720FFF7D6
:101D90008DFC334631463A20FFF788FC19463B203C
:101DA000FFF784FC00212320FFF780FC0021242082
:101DB000FFF77CFC29462520FFF778FC00214E2008
:101DC000FFF774FC00214F200CE100002020777702
:101DD000772E61726D6A697368752E636F6D20204E
:101DE00000000000204C4344205353443132383922
:101DF0002C494438393839200000000008010020FF
:101E000090427DD101210020FFF750FC5146012076
:101E1000FFF74CFC19460220FFF748FC41F218017D
:101E20000320FFF743FC00210420FFF73FFC594645
:101E30000820FFF73BFC00210920FFF737FC0021B9
:101E40000A20FFF733FC00210C20FFF72FFC0021B4
:101E50000D20FFF72BFC00210F20FFF727FC0021AE
:101E60001020FFF723FC00211120FFF71FFC0021A9
:101E70001220FFF71BFC00211320FFF717FC142092
:101E800000F034FE41F2B0711020FFF70FFC40F279
:101E900037111120FFF70AFC052000F027FE40F261
:101EA00039111220FFF702FC052000F01FFE4FF44D
:101EB000E8511320FFF7FAFB13212920FFF7F6FB67
:101EC000052000F013FE00212020FFF7EFFB00218A
:101ED0002120FFF7EBFB07213020FFF7E7FB31461E
:101EE0003120FFF7E3FB40F2051319463220FFF7DC
:101EF000DDFB40F2062529463520FFF7D7FB00E041
:101F000072E040F6080631463620FFF7CFFB29463F
:101F10003720FFF7CBFB40F204513820FFF7C6FB18
:101F200007213920FFF7C2FB19463C20FFF7BEFB13
:101F300031463D20FFF7BAFB00215020FFF7B6FBEA
:101F4000EF215120FFF7B2FB00215220FFF7AEFB3B
:101F500021465320FFF7AAFB4FF427416020FFF7EB
:101F6000A5FB01216120FFF7A1FB00216A20FFF7FB
:101F70009DFB00218020FFF799FB00218120FFF7C6
:101F800095FB00218220FFF791FB00218320FFF7C2
:101F90008DFB00218420FFF789FB00218520FFF7BE
:101FA00085FB10219020FFF781FB00219220FFF795
:101FB0007DFB03219320FFF779FB4FF48871952077
:101FC000FFF774FB00219720FFF770FB002198209A
:101FD000FFF76CFB41F208010320FFF767FB40F2BB
:101FE00033110720FFF762FB2A48C8F808004FF4B6
:101FF00078414FF6E070FFF721FB4FF4FC60FFF7EC
:10200000D3F80020FFF7C6F9224D4FEA0D0AA88841
:1020100000EB80008000C0F5A07000EBD070C0F332
:102020004F060024D8F80800A9881AF80420C088B0
:1020300001FB046100EBC00080B289B2FFF77EF9BA
:10204000641CE4B2BC42EDD3B8F804204A4514D174
:1020500000240DF1180900BFD8F80800A98819F864
:102060000420C08801FB04618004000C89B2FFF7E2
:1020700065F9641CE4B2BC42EED3F0224FF4A071C7
:1020800005A000F039FA4FF4827000F02FFD0DB07A
:10209000BDE8F08F140100200A0D20232323232301
:1020A00023204C43445F504958454C5F57494454A2
:1020B00048202025643B20204C43445F504958452C
:1020C0004C5F484549474854202025642E2023234F
:1020D00023232323200A0D002DE9FC4188460446D2
:1020E00032493248083150F8240051F8241008438E
:1020F0000121FFF7F7FB2D480838ECB350F8240016
:102100000121FFF713FC2948294E403830F814000C
:10211000C2B22648483830F8141056F82400FFF7A9
:1021200021F8224806F108073C3830F81400C2B202
:102130001E48443830F8141057F82400FFF712F8FE
:1021400000208DF8060001208DF8070017480225B1
:1021500050388DF8045030F8140000908DF8055078
:1021600056F824006946FEF7BFFF10488DF804506A
:102170004C3830F8140000E013E0009057F82400C9
:102180006946FEF7B1FFA6F10805414655F824005F
:1021900000F042F955F82400012100F014F9BDE8DF
:1021A000FC8100680121FFF7CDFBACE7C4AB000860
:1021B000280100201CB504460E48012150F82400D7
:1021C000FFF790FB0B480021483830F814000090CE
:1021D00001208DF804008DF806108DF8070002200C
:1021E0008DF805000448694650F82400FEF77CFF8E
:1021F0001CBD0000D4AB000838010020044951F890
:1022000020104A69034B33F8100042404A6170477E
:10221000380100208CAB00080149086070470000BD
:10222000DC00274210B58A0721F003040649130F8A
:1022300021440F220C689A4094430C600A6898402D
:1022400002430A6010BD0000083801402249002006
:102250000A6842F480320A604FF4A0630A6800F111
:10226000010012F4003F01D19842F7D108688003C1
:1022700031D519484030026842F080520260174858
:10228000026842F48042026013480830026802602B
:10229000026842F400420260026842F4A052026006
:1022A000031F0F4A1A600A6842F080720A600A68C7
:1022B0009201FCD50B4A40F205611160016821F0E2
:1022C00003010160016841F0020101600168C1F38E
:1022D00081010229FAD170470038024000700040A5
:1022E00019544007003C024006F040BE70B51A4C3D
:1022F00020681A4A10F00C01194804D0194E04291C
:1023000003D0082903D002601BE0066019E01249DF
:10231000091F0B68C3F380550B6803F03F0315B129
:10232000B6FBF3F201E0B2FBF3F20B680968C3F30A
:1023300088135A43C1F30141491C4900B2FBF1F132
:1023400001602168064AC1F30311121D515C026845
:10235000CA40026070BD0000083802400024F4004A
:102360000000002040787D010F4810B5016841F061
:10237000010101600C4A00210832116002680B4B18
:102380001A400260031D0A4A1A60026822F4802281
:10239000026005480C300160FFF758FF05494FF017
:1023A0000060086010BD000000380240FFFFF6FE2C
:1023B0001030002408ED00E00120FFF71FFF9620F9
:1023C00006F024FCF8E70029818902D041F400518D
:1023D00001E021F4005181817047024600201288FB
:1023E0000A4200D00120704710B5C1F3421301F03A
:1023F0001F040121A140012B07D0022B07D014306C
:10240000002A026805D00A4304E00C30F8E71030D7
:10241000F6E78A43026010BD7FB50446008A0D4688
:1024200020F44051E88808432082A08941F20C61E1
:102430008843A9882A8911436A8902431143A181EB
:10244000A08A20F44071A8890843A0826846FFF75B
:1024500085FA1D48844202D01C48844201D1039869
:1024600000E00298A1890904002900EBC00101EBFA
:102470000010296802DA4FEA410101E04FEA8101C8
:10248000B0FBF1F06422B0FBF2F14FEA01114FEA28
:1024900011136FF018056B4300EB8300A3891D0433
:1024A0004FF0320306D503EBC000B0FBF2F000F0B2
:1024B000070005E003EB0010B0FBF2F000F00F00A6
:1024C000084320817FBD000000100140001401403E
:1024D000C1F308018180704701A000F00DF8FEE70C
:1024E0000A0D2055736167654661756C745F4861BC
:1024F0006E646C65722000000FB4054B10B503A923
:10250000044A029800F030F810BC5DF814FB00009B
:102510001D3E0008C00100200FB4084B10B504A9EF
:1025200002AA039800F020F8044602A9002000F057
:10253000F5F8204610BC5DF814FB00001D270008CC
:1025400000487047C401002002E008C8121F08C1FB
:10255000002AFAD170477047002001E001C1121F24
:10256000002AFBD1704700002DE9FF4F8BB00546D4
:102570009A460F460026C7E0252837D100246D1C57
:10258000654AA14601212B78203B01FA03F0104255
:1025900002D004436D1CF6E728782E2817D115F8D1
:1025A000010F44F004042A280ED06FF02F0228787F
:1025B000A0F1300109290AD809EB890102EB410198
:1025C00000EB01096D1CF2E757F8049B6D1C28789D
:1025D00069283ED006DC00286FD063280CD0642820
:1025E00004D136E0732810D075284CD052460D998E
:1025F000904706F1010686E001CF8DF8000000202B
:102600008DF80100E846012003E057F8048B4FF0F5
:10261000FF3061074FF0000401D40AE0641C4C4510
:102620000DDA8442FADB18F804100029F6D106E02E
:10263000641C8442FCDB18F804100029F8D12644FD
:1026400004E018F8010B52460D999047641EF8D229
:1026500059E001CF4FF00A0B002804DAC0F1000066
:102660004FF02D0102E0210504D52B218DF8241017
:10267000012104E0E10701D02021F7E700210DF15D
:10268000200808910AE001CF4FF00A0BF6E75946FF
:10269000FDF743FE01F1300208F8012D0028F6D1C4
:1026A000ADEB080000F1200B600701D44FF00109E9
:1026B000D94503DDA9EB0B0001E029E000208146AC
:1026C000002406E009A85246005D0D999047761C4B
:1026D000641C08988442F5DB04E0302052460D99D2
:1026E0009047761CB9F10001A9F10109F5DC05E07C
:1026F00018F8010B52460D999047761CBBF100016A
:10270000ABF1010BF4DC6D1C287800287FF434AFAA
:102710000FB03046BDE8F08F092801000A68531C4D
:102720000B60107070472DE9F041044640690E4679
:102730009046C8B12078A16A03F024F805004FF054
:10274000FF370ED06E6003F063FE85F808802946DF
:10275000606903F051FF50B100206860284603F023
:1027600075F83846BDE8F0816FF00800FAE7A36A13
:102770001BB100221146204698470020F2E70000D6
:1027800070B5144D0646686803F063FF12480024D4
:1027900004EB840150F8211041B1641C042CF7DBD8
:1027A000686803F051FF4FF0FF3070BD04EB840206
:1027B000002140F8226000EB82000122416001818B
:1027C00041818281C1810161686803F03DFF20463B
:1027D00070BD0000200000200002002010B501F0B4
:1027E000BFF9BDE810400022024941F2883003F0F1
:1027F000A3BF0000DD27000810B501F0B1F9BDE866
:1028000010400022024941F2883003F095BF0000D9
:10281000F92700081FB5416A064B0122CDE90013D4
:10282000CDE9021200F12B031946034A01F00EF91B
:1028300004B010BDF6950008F09500087CB504467C
:10284000406A002833D00079002830D004F12404F5
:10285000E0798DF80000207A8DF80100607A8DF81B
:102860000200A07A8DF80300E07A8DF80400207B46
:102870008DF8050054F82409D1F80E208D690379EC
:1028800001F10801012B13D0022B01D143797BB157
:10289000006882420BD106226846FDF724FD00281D
:1028A00005D0606A007A78B1204600F015F87CBD4A
:1028B00000688242F8D08542F9D106226846FDF7C9
:1028C00012FD0028F0D17CBD2046FFF7A3FF616A0E
:1028D000642008727CBD70472DE9F0410546002751
:1028E000446A03F0C9F810B1284603F0E1F8002665
:1028F0006E60AE60EE6044B32671E680667126605D
:1029000084F80860B5F82F00164E304401F0A2FD9F
:1029100003F020F9696A497A0844134980B20843F0
:10292000B04201D200F57E401049884201D9A0F59D
:102930007E4001F08FFD2060607A401C6072284666
:1029400000F016F83846BDE8F0810A2002F0FEFCDF
:10295000040004D02660666026816C62D2E74FF0E6
:10296000FF30F0E70001FEA90000FEA9FFFEFEA96E
:1029700010B550F8241F01220A7100224A71C27A50
:10298000037B447A42EA0362837A00681B0443EAC9
:1029900004231A4300B1407A10440A22B0FBF2F338
:1029A00002FB1300C880487A0A2802D94FF4167037
:1029B000C88010BD10B500F009F80022BDE8104035
:1029C0000149642003F0B8BEB52900082DE9FF4194
:1029D000414814260025046861E0616A00295DD041
:1029E000087A08B1401E0872676A3879012802D057
:1029F000022853D13AE0F88810B1401EF8804DE02B
:102A00007879032806D302203871606A4571606ABC
:102A1000C68043E0314A324BCDE900320121CDE995
:102A2000027104F12B03204619462E4A01F00EF8DC
:102A300054F8240F4179491C4171E07A217B627A74
:102A400040EA0161A07A000440EA0220014354F800
:102A5000240908B1427A00E0002211440A22B1FBA5
:102A6000F2F302FB13110A31C18017E0F888002845
:102A7000C3D17879B8B12046FFF7CCFE606AC68032
:102A8000616A4879401CC0B24871616A022805D366
:102A900003200871606A4571606AC5802468002C53
:102AA0009BD1BDE8FF81104801F0D4FC00900020CC
:102AB00001F0D0FC01903946204603F007F8694642
:102AC000204603F035F801A9204602F0FAFF20461F
:102AD00003F032F8D2E7000054000020F695000819
:102AE000E8950008F09500080000FFFF03494843FF
:102AF00000E0401E0028FCD170470000A0860100C5
:102B000000280BD0026A002A08D0937C082B05D13C
:102B10000968926A914201D100F034B9704700000F
:102B20002DE9FC41050062D02C6A002C5FD0A06C1E
:102B30004FF03C01471C4FF480364FF6FF724FF0C8
:102B400001030AD01E30B0FBF1F0B04200D31046B2
:102B50000004000C208400D12384E06C471C0AD0C0
:102B60001E30B0FBF1F1B14200D311460804000C55
:102B7000608400D1638414F12C0000D0E06A0090DE
:102B800070B902F0E7FF000E7F2802D84FF07F40B7
:102B900003E0C0280BD36FF0FF0001F05BFC009056
:102BA00014F1300000D0206B019010B10BE01148FF
:102BB000F3E7A06A009908400190012001F04AFC67
:102BC00001990843019004F12801284602F07EFF94
:102BD0006946284602F0ACFF01A9284602F071FFC1
:102BE000284602F0A9FF0A21204600F0B1FBBDE80B
:102BF000FC8100000000FFFF70B5046A0546082153
:102C0000204600F0A5FB002204F12801284600F030
:102C1000D7FEE07C401CE0740120E08370BD000022
:102C2000164810B5046825E0216A11B3488C421E8D
:102C30004A84012806D0216A088C421E0A84012891
:102C40000CD016E0216A2046897C012903D00A298C
:102C500001D005290DD100F0C1F90AE0216A204612
:102C6000897C012903D00A2901D0052901D100F06E
:102C7000AFFA2468002CD7D110BD0000540000200A
:102C800070B506000DD0346A74B100224FF49A7109
:102C9000104602F063FF606148B1E27C37494AB1F7
:102CA0000BE06FF0090070BD6FF0080070BD4FF0D1
:102CB000FF3070BD0A68521C0A60096821604168D3
:102CC0000120A1610870A16900254870A169062052
:102CD0008870A069C570206801F0BCFBA1694860DC
:102CE000A0690581A0694581A069C560A07C0A280A
:102CF00003D0052801D0042802D1A1697068C860FA
:102D0000A0695FF000010561A0694561A069856166
:102D100096F82A00884203D9701890F82B0000E03A
:102D2000002001F11C02A369491C89B298541029A2
:102D3000EED3002000F12C01A269401C80B2555452
:102D40004028F7D35FF0000000F16C01A269401C3D
:102D500080B255548028F7D3094801F07BFBA16964
:102D6000C1F8EC00A5830020A26900F1F0015054E5
:102D7000401C80B24428F7D3002070BD3C000020E6
:102D800063538263F8B5046A05460C21204600F0BF
:102D9000DFFA2846FFF774FF060027D1012235210C
:102DA000204600F0B9F80421204600F0C5F80422BE
:102DB0003221204600F0B0F8A06A02F0CBFE0146B6
:102DC000204600F0C1F8204600F0F0F8A08BF0306B
:102DD00081B2606903F03EF800954323074A6169B8
:102DE000606805F0EDFD284600F00AF8E07C401C24
:102DF000E0741420E0833046F8BD0000EC95000834
:102E000010B5002809D0046A002C06D0606908B10A
:102E100002F0CEFF00206061A06110BDF8B505464C
:102E2000046A2E4806210068A062204600F090FA4D
:102E30002846FFF725FF060039D10122352120461B
:102E400000F06AF80121204600F076F802223921CC
:102E5000204600F061F8298D204600F096F8042203
:102E60003721204600F058F80121204600F064F890
:102E70000321204600F060F81C21204600F05CF899
:102E80000621204600F058F8204600F08FF8A08B6D
:102E9000F03081B2606902F0DDFF00954323104AF3
:102EA0006169606805F08CFD2846FFF7A9FFE07CAA
:102EB000401CC0B2E074062802D20121814000E02B
:102EC0003C214FF47A70414388B200F2F3104FF482
:102ED000FA71B0FBF1F0E0833046F8BDE8950008E8
:102EE000EC95000870B50B48002504680EE0206AD8
:102EF00058B1C18B012903D9A1F10101C18304E0BB
:102F000003D1C583204600F02AFA2468002CEED1B4
:102F100070BD00005400002010B5838B84691C44F0
:102F20005B1C838384F8F010818B83690B44491CFC
:102F3000818383F8F02010BD828B83691344521C77
:102F4000828383F8F010704710B5828B84690B0E72
:102F50001444521C828384F8F030828B84690B0CF9
:102F60001444521C828384F8F030828B84690B0AEB
:102F70001444521C828384F8F030828B836913449A
:102F8000521C828383F8F01010BD10B5828B8469C7
:102F90000B0A1444521C828384F8F030828B8369BC
:102FA0001344521C828383F8F01010BD002814D003
:102FB000818B8369FF220B44491C818383F8F020B5
:102FC000002205E083690B44491C818383F8F020CB
:102FD000818B4429F6D38B07F4D17047F8B5046A86
:102FE00005460421204600F0B3F92846FFF748FEC5
:102FF000060024D1012235212046FFF78DFF032151
:103000002046FFF799FF022239212046FFF784FF6F
:10301000298D2046FFF7B9FF2046FFF7C7FFA08B99
:10302000F03081B2606902F015FF009543230F4A2A
:103030006169606805F0C4FC2846FFF7E1FEE07CAA
:10304000401CC0B2E0740A2803D24FF47A7148439E
:1030500001E042F2107080B200F2F3104FF4FA7106
:10306000B0FBF1F0E0833046F8BD0000EC950008BD
:10307000F8B5046A06460321204600F069F9304697
:10308000FFF7FEFD050031D1012235212046FFF773
:1030900043FF03212046FFF74FFF0222392120463C
:1030A000FFF73AFF4FF410712046FFF76EFF04223E
:1030B00032212046FFF730FFA06A02F04BFD0146A7
:1030C0002046FFF741FF2046FFF770FFA08BF0304E
:1030D00081B2606902F0BEFE009643230E4A616928
:1030E000606805F06DFC3046FFF78AFEE07C401C0E
:1030F000C0B2E0740A2803D24FF47A71484301E069
:1031000042F2107080B200F2F3104FF4FA71B0FB8B
:10311000F1F0E0832846F8BDEC950008F8B5046AA4
:1031200005460D21204600F013F900206062E062A0
:10313000A06260632063E064A0646064A0632846CA
:10314000FFF79EFD06001CD1012235212046FFF726
:10315000E3FE07212046FFF7EFFE2046FFF726FF9C
:10316000A08BF03081B2606902F074FE00954323B9
:1031700004F124026169606805F022FC2846FFF72B
:103180003FFEE07C401CC0B2E0740A2803D24FF43A
:103190007A71484301E042F2107080B200F2F310FD
:1031A0004FF4FA71B0FBF1F0E083284602F080FCA6
:1031B0000649284602F08AFC0449284602F081FCB0
:1031C0000249284602F0B4FC3046F8BDE8950008F4
:1031D000F8B5046A05460521204600F0B9F82846EE
:1031E000FFF74EFD060025D1012235212046FFF7CD
:1031F00093FE03212046FFF79FFE0222392120463D
:10320000FFF78AFE298D2046FFF7BFFE2046FFF715
:10321000CDFEA08BF03081B2606902F01BFE0095FC
:10322000432304F124026169606805F0C9FB284664
:10323000FFF7E6FDE07C401CC0B2E0740A2803D230
:103240004FF4FA61484301E044F6206080B200F296
:10325000F3104FF4FA71B0FBF1F0E0833046F8BDA3
:10326000F8B5046A05460121204600F071F82846A9
:10327000FFF706FD060051D1012235212046FFF758
:103280004BFE03212046FFF757FE0222392120463C
:10329000FFF742FE298D2046FFF777FE04223221F8
:1032A0002046FFF739FEA06A02F054FC0146204692
:1032B000FFF74AFE042236212046FFF72DFE606A02
:1032C00002F048FC01462046FFF73EFE042237216B
:1032D0002046FFF721FE01212046FFF72DFE0321A6
:1032E0002046FFF729FE1C212046FFF725FE062178
:1032F0002046FFF721FE2046FFF758FEA08BF03056
:1033000081B2606902F0A6FD009543230F4A61690E
:10331000606805F055FB2846FFF772FDE07C401C15
:10332000C0B2E074062802D20121814000E03C21B5
:103330004FF47A70414388B200F2F3104FF4FA71FF
:10334000B0FBF1F0E0833046F8BD0000EC950008DA
:10335000827C8A4202D081740021C174704710B50A
:10336000026A0446917C0C2913D0062911D0012948
:1033700013D008291ED0052928D004292AD00329D2
:1033800030D1D07C022813D22046BDE81040FFF790
:103390006FBEBDE81040FFF741BDD07C052804D8C2
:1033A0002046BDE81040FFF75BBF2046FFF7B6FEA2
:1033B0002046EEE7D07C0128204603D8BDE8104027
:1033C000FFF71ABCBDE81040FFF7AABBBDE81040EC
:1033D000FFF7FEBED07C0828E7D82046BDE81040A5
:1033E000FFF7FCBD10BD000010B5FFF719FCBDE8EC
:1033F0001040002202494EF6602003F09DB9000003
:10340000E933000810B5FFF76DFDBDE8104000225C
:1034100002494FF4FA7003F08FB900000534000838
:1034200010B50446006890F9081011F1040F1FDB75
:103430004368DBB1007800F0F000102810D020289D
:1034400006D0402814D11846616802F0C7FE04E097
:1034500022891846616805F0ADF92168087207E015
:1034600022891846616803F089FAF6E7F7210172AC
:103470002068C068BDE8104003F0E6B810B5044607
:103480004068002103F078FA6068017C01294FF060
:10349000000129D004F08CFD0021606803F0EEF9F2
:1034A0000021606804F0C1FE04220021606804F07D
:1034B000B1F90021606803F0C2FC606803F0BEFA55
:1034C000A8B11549606804F0B0FE04221349606891
:1034D00004F0A0F91249606803F0B1FC214660686D
:1034E000BDE8104003F048BA03F0C8F9E5E7002052
:1034F000607060602072A36A4BB1002211462046C2
:103500009847A36A1BB10022022120469847E06831
:10351000BDE8104003F098B8CF630008955F00083D
:10352000A537000810B504460068416891B10278DB
:1035300002F0F002102A21D0202A05D0402A09D119
:10354000084602F0A1FE05E00020C861206840683E
:1035500005F020FA2068836A43B10022114698479B
:103560002068836A13B10022022198472068C0684E
:1035700000280AD0BDE8104003F066B8042141706D
:103580002068BDE81040FFF779BF10BD30B4036874
:103590006FF00702596861B3037B002B436801D0C9
:1035A000096800E04968196001680B7803F0F003CE
:1035B000102B15D0202B08D0402B1BD1037B13B12F
:1035C0004968097C12E00A7214E0037B13B1496870
:1035D000498A0BE04B681C7C6407F4D5998A05E0A6
:1035E000027B49680AB1098B00E0098C826811806E
:1035F00000E01A720068C06830BC03F025B8000013
:1036000070B50446006890F9081011F1040F08DB4A
:10361000426832B10178102903D1117C39B1F82107
:1036200001722068C068BDE8704003F00DB82179D0
:10363000104603F059FE05004FF0FF360BD020680E
:10364000006920B102F0BEFF2168002008612068F7
:10365000406918B10AE020680672E2E74FF4FA60A8
:1036600002F0B9FF216800284861F4D02068017A8F
:103670000029D6D102214170216828464D60216879
:1036800003F07AF920680249406803F0F7F8C8E7C8
:103690002727000810B504460068406810B9204686
:1036A00002F006FC2068C068BDE8104002F0CCBF04
:1036B00010B50168044691F9080010F1040F0ADB07
:1036C000486840B10978102905D1017C012908D04A
:1036D000A18804F082FC2068C068BDE8104002F0B8
:1036E000B3BF10F8211F491E0170F4E72DE9F04126
:1036F000026A0446406A5168936801440027181A18
:10370000B0F5803F02D34FF6FF7500E085B26668E2
:10371000B6F86E00A84200D20546137B2A46304612
:1037200004F017FF002618B1411C37D020722EE09C
:10373000606A28446062216A8968884203D12662EF
:103740006662012766706068816F61B190F822102F
:1037500011F0440F07D1416F41B10A681AB9898944
:10376000028F914202D303F045FE00E00020207258
:1037700060B9606840F2B451B0F86E00884205D874
:10378000A36A1BB12A460321204698471FB16670E1
:10379000E06802F059FF0020BDE8F081606803F0A6
:1037A00029FEF8E770B500254560044601720069FE
:1037B00048B1A36A1BB10022114620469847002158
:1037C000206902F00CFFE06830B16078032803D173
:1037D0006570E06802F038FF606948B1A36A1BB108
:1037E00000221146204698470021606902F0F7FE4A
:1037F0006078012801D0042805D16570E068BDE833
:10380000704002F021BF70BD2DE9F84306008846E4
:10381000914674D050892A286ED3D9F804500120DB
:1038200005F10E0400F018FE2188884264D140F2B0
:10383000046000F011FEA18888425DD14FF4006061
:1038400000F00AFE6188884256D140F6060000F07A
:1038500003FEA98988424FD121463046FEF7EEFF8C
:10386000D4F80E000090A169706820B1814202D1A5
:1038700001273B4601E000273B4604F10802694668
:10388000304605F0F7F8E08800F0E6FD012802D0A8
:10389000022831D12CE057B3022000F0DDFDE0809A
:1038A000D4F80E00A0617068C4F80E00706A06219A
:1038B00020B1007910B11348024602E004F108007B
:1038C000FAE7491E11F0FF0104EB0100037A83744B
:1038D000535C6B5418F80130037205EB010318F8C0
:1038E00001009871EDD1B26949463046904703E036
:1038F00069463046FFF704F9484602F059FABDE838
:10390000F8830000F09500082DE9FC410E460546BD
:1039100014460E21304602F06DFA18B16FF0010026
:10392000BDE8FC812946204600F07FFE08B1234B0C
:1039300029E04FF0704002F00DF9216800EA01071C
:103940004FF0604002F006F9874223D101208DF844
:10395000000000208DF801005E208DF80200206834
:1039600002F0F8F8000CC0F306008DF803002068A0
:1039700002F0F0F8000A8DF80400206802F0EAF87E
:103980008DF805006B4605F12B023146284600F004
:10399000CBF8C5E7A86821686A68014002409142F7
:1039A00003D0E86838B105F10C04324621462846B8
:1039B00000F006F8B4E76FF00300B1E7F0950008F7
:1039C0002DE9F04780460D4600F12B0916464FF0D1
:1039D000FF374146284600F028FEE0B9380702F0DC
:1039E000B9F8296800EA0104780702F0B3F88442C4
:1039F00011D085B1286870B10121284600F09CF9EA
:103A000000280ADB104901EB0014A07A38B1012824
:103A100007D036B10BE06FF00900BDE8F087012058
:103A2000A0722946404600F06DF807464EB1A07AD4
:103A3000022806D1231D4A463146404600F074F85C
:103A400007463846E9E70000A05100202DE9F05F65
:103A50008046894617469A4600222A210320DDF82F
:103A60002CB002F07BF8060046D075680D9805F181
:103A70000E0400F0F1FCE080D8F82410062011B10B
:103A8000097901B11E4F401E10F0FF0004EB000148
:103A90001AF800200A721BF800208A74395C295435
:103AA00005EB000219F800109171ECD10A9800683A
:103AB000C4F80E000C980068A061012000F0CCFC56
:103AC00020804FF4006000F0C7FC608040F204608A
:103AD00000F0C2FCA08040F6060000F0BDFCA8810A
:103AE000D8F818204046314690470446304602F048
:103AF0005FF92046BDE8F09F4FF0FF30FAE7000085
:103B0000F09500081FB50123064C021DCDE90213F4
:103B1000CDE9002400F12B031946A21FFFF796FF01
:103B200004B010BDF69500082DE9F0414D68064639
:103B30000F460624641E14F0FF0405EB0401185D13
:103B40002855105D8871F5D14FF4006000F084FCB9
:103B5000A88139463046B269BDE8F04110470000FF
:103B600030B500200C4A044602EB0011CB7A5B1CF6
:103B7000DBB2CB728D7A022D02D0012D03D005E08D
:103B8000F02B02D202E0022B00D38C72401CC0B298
:103B90000A28E9D330BD0000A051002070B50446CA
:103BA00040680D46808900F057FCB0F5006F04D0E6
:103BB000A0F50060063806D10EE06FF00D0120463A
:103BC00002F018F918B1204602F0F2F80AE029468E
:103BD000204600F043FD05E0224605F12B01284672
:103BE000FFF712FE002070BD10B5732180F832106F
:103BF000742180F83310074941610749816100F061
:103C0000BDFE0022054941F2883002F095FD0020FA
:103C100010BD000009390008D14A0008F927000842
:103C20000A4C002364221946606805F0E7F9012870
:103C3000F7D1206800F008FF216805460A6990471F
:103C40000028EED0284602F0B3F8EAE7DC000020B6
:103C50002DE9F04106000F4669D0B469354D002CBE
:103C60000DDA686802F0F5FCB469002C04DA0FB9CB
:103C7000641EB461686856E0686802F0E5FC20469E
:103C800000F080F9060052D0A86802F0E2FC38008B
:103C90004FF0010706D0012807D0022809D00328D9
:103CA0000BD108E07089401C01E07089401E7081D2
:103CB00003E0B78101E00020B081A86802F0C4FCF5
:103CC000A86802F0C6FC28682AE0016939BB41688F
:103CD00079B1E21704EB527201EBE20104F0070242
:103CE000097807FA02F2114203D0B6F90A10002946
:103CF0000FDC816899B1E21704EB527201EBE2012B
:103D000004F007030A7807FA03F10A4207D0B189E1
:103D100029B138B10761406902F096FCCDE700682F
:103D20000028D2D1A868BDE8F04102F08DBCBDE802
:103D3000F0810000200000202DE9F04F8B464FF06D
:103D40000A0C0021DFF8CCA0DFF8CC80E146624607
:103D50000C460D4678B19AF8007008EB07139E7A6E
:103D6000022E08D106681B689E4204D178B2BDE8D5
:103D7000F08F0A2A03D108EB01139B7A3BB108EBC1
:103D800001139E7A012E04D0022E0ED01CE04AB2FE
:103D90001AE018B106681F68BE420BD0DB7AA34256
:103DA00012D34FFA81FC1C460EE038B106681F683A
:103DB000BE4203D18AF8001048B2D8E7DB7AAB42A2
:103DC00002D34FFA81F91D46491CC9B20A29D0D342
:103DD0004FF0FF310A2A02D15FEACB7318D05FEAB5
:103DE0008B7315D40A2A03DB4A46B9F10A0F01DAAC
:103DF000D1B204E0BCF10A0F0ADA0CF0FF0108EBC3
:103E000001120023937208B100681060D372D1E7E9
:103E10000846ACE7D8000020A051002070B5074D3F
:103E20000446C1B22846FEF753FB40212846FEF760
:103E3000D4FA0028F9D0204670BD000000100140DF
:103E400070B588B005460E46144620216846FCF73A
:103E500014FA20236A463146284600F047F84FF00E
:103E6000FF35A8B96846FCF736FA802810D89DF8C7
:103E7000001022290CD06844694610F8010C222851
:103E800006D00846FCF73CFA2060002008B070BD60
:103E90002846FBE770B588B004460E46154620213B
:103EA0006846FCF7EAF920236A463146204600F0CE
:103EB0001DF84FF0FF3478B96846FCF70CFA8028FB
:103EC0000AD89DF80010222906D10DEB00026946A0
:103ED00012F8012C222A02D0204608B070BD821EA2
:103EE000491C2846FCF7EBF90020F6E7F0B589B04D
:103EF00004460D46164620216846FCF7BEF92A46C0
:103F00001CA16846FEF708FB69462046FCF7C1F98C
:103F100005004FF0FF372AD018A1FCF7BAF90400CA
:103F200005D117A12846FCF7B4F904001FD0684654
:103F3000FCF7D1F905446D1C20216846FCF79DF97A
:103F4000641B202C13DA224629466846FCF7B7F991
:103F5000002001466B4605E01A5C202A01D072540D
:103F6000491C401CA042F7DB002009B0F0BD3846D8
:103F7000FBE7000022257322000000002C00000057
:103F80007D000000042807D2044900EB800001EB0B
:103F900080000168002900D1002070470002002045
:103FA000ADF5066D00244FF4806526462746294668
:103FB00001A8FCF762F929460DF20440FCF75DF90F
:103FC0000020CDF8480820210DF60800FCF755F92F
:103FD0000220CDF84408ADA0FEF78EFA0DF6540B82
:103FE0004FF0010AAF480068002877D000235A1E1E
:103FF0000DF62C0105F002F8ABA0FEF77DFA0020CB
:10400000CDF85408DDF82C080DF64409C11700EB73
:1040100051710BEBE10200F0070513780AFA05F580
:104020002B431370A4A0FEF767FADDF82C080023D9
:10403000CDF80090401C1A460DF6540100F058FFD0
:104040000546A1A0FEF758FAADB36D1C47D0DDF8C8
:104050002C08C11700EB51710BEBE1000178DDF882
:104060002C0800F007020AFA02F00142BAD09AA026
:10407000FEF742FA002340F2FF3201A9DDF82C08D6
:1040800000F06CFEB0F100082DDC00BFDDF82C085C
:10409000C11700EB51710BEBE100DDF82C18027831
:1040A00001F007030AFA03F18A430270DDF82C08D5
:1040B00000F000FE96E7FFE78AA0FEF71DFADDF8A4
:1040C0002C08C11700EB51710BEBE10100F0070365
:1040D0000A780AFA03F082430A70A3E7CEE084A0CC
:1040E000FEF70AFAD2E74444002F23D0012F99D1DA
:1040F00001A983A0FEF700FA43463246214685A077
:10410000FEF7FAF9B44269DD4346224631468BA0F8
:10411000FEF7F2F9324601A90DF20440FCF794F8DB
:1041200020230DF6080294A10DF20440FFF7B2FE21
:1041300058B32FE092A0FEF7DFF9102CCDDB21461B
:1041400001A800F0DFFB0546014690A0FEF7D4F978
:10415000002D16DB0DF1040808EB050110220DF609
:104160003400FCF771F801274046103CDDF83C684C
:1041700003E04119097C41556D1CA542F9DBA046BD
:10418000B6E76D1CA9D100244CE70DF6080184A008
:10419000FEF7B2F920230DF6080284A10DF20440C7
:1041A000FFF778FE20B90DF6080182A0FEF7A4F90A
:1041B0000DF5056282A10DF20440FFF741FE20B922
:1041C00081A0DDF85018FEF797F94FF480610DF2E9
:1041D0000440FCF752F8A41B002785E7B44240D105
:1041E00021467DA0FEF788F9324601A90DF2044070
:1041F000FCF72AF80DF204417FA0FEF77DF90024B8
:10420000274620230DF608025BA10DF20440FFF7BC
:1042100041FE20B90DF6080161A0FEF76DF92023DB
:104220000DF6080261A10DF20440FFF733FE20B93C
:104230000DF608015FA0FEF75FF90DF5056260A1BC
:104240000DF20440FFF7FCFD20B95FA0DDF8501827
:10425000FEF752F94FF480610DF20440FCF70DF8BF
:10426000E0E66AA0FEF748F90DF204402044A0EB16
:104270000800224601A9FBF7E7FFD3E667A0FEF797
:104280003BF9002004F0D4FDACE6000068616E64E8
:104290006C654C6F6E67436F6E6E5461736B0D0A85
:1042A000000000001C000020676574206E65772008
:1042B000636F6E6E0D0A0000737461727420736C0C
:1042C0006563740D0A00000066696E697368207387
:1042D0006C6563740D0A00007374617274207265FA
:1042E000630D0A0074696D65206F75740D0A000016
:1042F00073656C656374206572726F720D0A0000DD
:104300007465737431202D2D2D2D3E202573200DC5
:104310000A000000646174612E2E2E2E2E726563D9
:10432000203D202564206A61736F6E203D20256446
:1043300020726574203D2025640D0A003131313131
:104340003131313131313131313131313131206A35
:1043500061736F6E4C656E203D2025642020726570
:10436000636C656E203D20256420726574203D20BD
:1043700025640D0A000000007479706500000000DB
:10438000686561642E2E2E2E2E0D0A00686561640C
:10439000496E646578203D2025640D0A0000000008
:1043A00074797065203A2025730D0A006164647287
:1043B0000000000061646472203A2025730D0A0039
:1043C00076616C756500000076616C7565203A2039
:1043D00025640D0A000000003232323232323232AD
:1043E0003232323232322020726563206C656E20A8
:1043F0003D2025640D0A00007465737432202D2D54
:104400002D2D3E202573200D0A0000003333333359
:104410003333333333330D0A00000000784E6577B1
:10442000436F6E6E517565206973204E554C4C205C
:10443000616E642074686973207461736B206973A2
:104440002061626F757420746F2073757370656E70
:10445000640D0A0000BA704740BA70472DE9FC4766
:1044600007460E464FF0030800222421012001F0E8
:1044700075FB050023D06C68D7F804901C2284F8E3
:10448000008066700026A680E6806868796808303B
:10449000FBF7DAFE66806989204600F09CF86080B0
:1044A0000120CDE90060FF2309F10C02002128461C
:1044B00000F092F92846BDE8FC4701F079BCBDE860
:1044C000FC872DE9FE4F446805468A46208801F0A6
:1044D00043FBC0F303204FEA8009C9F1000188467D
:1044E000284601F087FC002870D1288904286DD364
:1044F00068680078082869D101264FF0704001F003
:1045000029FB216900EA01074FF0604001F022FB1E
:10451000874200D10026514604F1100000F085F8D2
:10452000002853D1002E51D0288908284ED3284680
:1045300000F057F8E8BB2221284601F05BFCD0B11F
:104540004946284601F056FC98BB298900220220E2
:1045500001F004FB060039D0294601F0ADFB40BB59
:1045600041463046746801F045FC10BB284601F016
:104570001FFC354605E06FF02101284601F03AFCAA
:10458000B8B96868E1682269E260216100260670B6
:104590004680208901F0E0FAC0B240F47F40FFF786
:1045A0005BFF208166814946284601F023FC00B963
:1045B00000E00BE00121CDE90061FF230022CDF8EE
:1045C00008A004F10C01284600F020F92846BDE8B7
:1045D000FE4F01F0EDBB10B500F0D8FDC04380B236
:1045E00010BD70B500242646054613E06989686849
:1045F00000F0CCFD2044010C11FA80F46889C0075A
:1046000007D0C6F10100C6B2E0B2C4F3072141EA07
:1046100000242D68002DE9D126B1E0B2C4F30721B2
:1046200041EA0024E04380B270BD0068421C12D011
:1046300088B191F8312092070BD54A68824208D0A0
:10464000896800EA01030A40934202D10143491CF0
:1046500001D0002070470120704700002DE9F05F75
:10466000446880460E46208801F076FA0421B1EBBA
:10467000103F12D1208801F06FFAC0F303204FEAF7
:104680008009608801F068FAB8F80A2001464A45B6
:1046900003D3B8F80800884203D2404601F088FBF3
:1046A00093E0404601F0D6FBDFF824A10127354610
:1046B00004F1100B284601F0DFF968B1281D0BD07A
:1046C000686848B12169814204D029465846FFF7FD
:1046D000ACFF08B15DB117E01FB10027DAF8005058
:1046E00000E02D68B54200D12D68002DE2D120896F
:1046F00001F032FAC0B2112806D104EB090040885B
:1047000001F02AFA442827D0E06898B1314604F134
:104710000C00FFF78AFF0028BFD14FF0704001F076
:1047200019FAE16800EA01074FF0604001F012FA5F
:104730008742B2D0002DB0D043F6FF70FFF78CFE59
:10474000E1880842A9D1234D31464046C5E90164BC
:1047500001F04AFD10B135E03546EBE7208901F064
:10476000FBF9C0B2012812D006280BD0112831461F
:1047700004D05846FFF759FF70B120E0404604F0DE
:1047800047F81FE03146404602F08AFB1AE0314606
:104790004046FFF796FE15E04FF0704001F0DAF961
:1047A000216900EA01064FF0604001F0D3F986422A
:1047B00005D040460221C8F80440FFF74FFE4046AE
:1047C00001F0F6FA00206860A8600020BDE8F09FC4
:1047D00054000020CC0000202DE9FE430746DDE90F
:1047E0000A45884616469946104600F067F850B1CB
:1047F0000094CDE901504B4632464146384600F020
:1048000005F8BDE8FE836FF00300FAE72DE9F05FDD
:104810000646DDE90BA8DDF828B0894615001F46DD
:104820003FD0142101F0E6FA18B16FF00100BDE8A5
:10483000F09F7468208901F08FF967F31F20FFF75C
:104840000BFE208101F088F920F0FF0040EA0A0009
:10485000FFF702FE2081286820614BF48A40FFF7B1
:10486000FBFD20803089FFF7F7FD134F60804FF08C
:10487000000AA4F806A03888FFF7EEFDA08038886B
:10488000401C3880B9F1000F02D0D9F8000020B9DF
:1048900018F1040001D0D8F80400E060A4F80AA0E0
:1048A00001E07568103540462A463146D8F8143084
:1048B000BDE8F05F18470000CC00002070B5054649
:1048C0000E4804680DE0204601F0D6F840B1A0681B
:1048D0002968626801400240914201D1204670BDC2
:1048E0002468002CEFD1064C206820B101F0C4F8F8
:1048F00008B1206870BD002070BD00005400002089
:104900005800002010B50346092905D213A0FDF771
:10491000F3FD6FF0010010BD0020093919E01A5CA9
:104920000D2A15D11A1854780A2C11D194780D2C0F
:104930000ED1D4780A2C0BD1147B0D2C08D1547BCA
:104940000A2C05D1947B0D2C02D1D27B0A2AE2D00D
:10495000401C8842E3D94FF0FF3010BD62756620DD
:104960006C656E203D202564206973206C6573732F
:10497000207468616E20390D0A0000002DE9FF41A6
:1049800000F128040626A6704FF00200E0704FF0F8
:10499000000525716571A571E571257240F2DC5045
:1049A00020804FF02200204F6072A4F128043C6068
:1049B000786820B90021142004F017FB786004F116
:1049C0002B010020FCF7A0F8052218491848FBF736
:1049D0005BFE052217491848FBF712FE164F00240C
:1049E00007EB44100121FBF737FE641C052CF7D3BD
:1049F0000F4F00244FF4400807EB44104146FBF7EB
:104A000067FE641C052CF7D3CDE9006502950023F1
:104A10004FF4AF7209A10B48039504F02DFCBDE8DB
:104A2000FF41FCF763B90000DC0000207471002036
:104A300010530020B0530020705200204574685F6E
:104A400069660000213C00082DE9FE4300273E4630
:104A50006846FBF7D9FEDDE9010500992A681204D2
:104A600013D48046032289B2104601F077F806007D
:104A70000BD0044608EB070162896068FBF7E4FB92
:104A8000608924680744002CF4D10F4801688A68C3
:104A9000012A00D90D6800214FF0004202E02A608F
:104AA000ED68491C03689B688B42F8D800680021B8
:104AB000816006484269120602D580224261816007
:104AC0003046BDE8FE830000040100200090024053
:104AD0002DE9F041184D0C460026A86850B9002178
:104AE000012004F053FAA86020B100231A461946A9
:104AF00004F008FB0023FA221946A86804F07EFAA5
:104B0000B0B10E480068876807E06289B81961682B
:104B1000FBF79AFB608924680644002CF5D1B0B2FB
:104B2000FCF75EF800231A461946A86804F0EAFA72
:104B30000020BDE8F0810000DC000020FC00002027
:104B40002DE9F04F87B08B461746FFF71BFA04009C
:104B50004FF0FF3A08D0E089000509D5B4F90A0002
:104B6000002805DC0B2026E0504607B0BDE8F08F9A
:104B7000206800F0E7FDDFF8D48005000DD00023A9
:104B800005AA04A900F096FE060016D0284600F0FB
:104B900049FE70420F280BD308E0206890F9080006
:104BA00041420F2902D2A8EB800003E0052002E079
:104BB000A8EB860000682061D6E74FF00009BBF142
:104BC000000F1CD0CDF8009010268DF80060022058
:104BD0008DF80100CDF80890CDF80C90BDF81400C8
:104BE000FFF73AFCADF802000498019038681028ED
:104BF00000D93E60694658463A68FBF725FB2846CF
:104C0000FDF7BEFD0646401C1AD01148A8621149A6
:104C1000DFF8448006EB860001EB8007D8F804003B
:104C200001F017FDA9697889C94308447881AE610C
:104C3000D8F8040001F008FD3046C4F8109094E75D
:104C4000284600F0EFFD1720B5E700006895000842
:104C5000513C00080002002020000020F8B50D465D
:104C60001746FFF78FF904004FF0FF3602D0102FE0
:104C700005D101E03046F8BD6878022801D0052052
:104C800011E068680090688800F066FF0246694697
:104C9000206800F0B1FD40B141420F29EFD2044934
:104CA000A1EB800000682061E4E700202061F8BDEE
:104CB0006895000870B5FFF765F9040014D0206806
:104CC00000F0B0FD0A4D686801F0C3FC606808B1EF
:104CD00000F026FD0020606020812060206168686F
:104CE00001F0B2FC002070BD4FF0FF3070BD00003D
:104CF0002000002010B501F021FC00F009FB00F0BD
:104D0000FDFB00F035FABDE81040FDF7E4BD000002
:104D100070B50D46FFF736F904004FF0FF3603D0AB
:104D2000002D03DA002504E0304670BDFF2D00DDC4
:104D3000FF25E9B2206800F0D7FD50B141420F29AC
:104D400004D20549A1EB8000006800E00520206145
:104D5000EAE70020206170BD689500081CB50024BA
:104D60000094019400F002F81CBD00002DE9FF4FF3
:104D7000002687B01746B146FFF704F9040003D0B8
:104D8000B3466568D5B904E04FF0FF300BB0BDE81D
:104D9000F08F0A98000702D4E089000508D5B4F91D
:104DA0000A00002804DC002E7AD10B202061EBE7FA
:104DB000206800F0D3FD0500606009D028682389D1
:104DC0000189C91A1FFA81FA574518D9D04618E047
:104DD000002E65D12068416809B1017A49B190F986
:104DE000080041420F2906D24049A1EB800000682B
:104DF00002E06E2000E0052020610020C6E71FFAD7
:104E000087F808994246314400F09EFF06EB0800FF
:104E100086B22068017810290DD1B7EB08070AD0B7
:104E20002A68527BD20706D1B4F90A20002A02DD93
:104E30000A9AD20740D0149A4FF0010962B3159A2A
:104E400052B310292DD0A8680090A889ADF814009D
:104E5000CDF804B010208DF8040002208DF8050074
:104E6000CDF808B0CDF80CB0CDF810B0BDF81400F6
:104E7000FFF7F2FAADF80600009800680290159866
:104E80000068102802D9159910200860159801A90A
:104E900002681498FBF7D8F90A98C00708D01CE0FC
:104EA0001FE002A9002305AA009100F003FDCFE74F
:104EB00020680078102809D1AAEB0800002805DD39
:104EC0006560218901EB0800208106E0C4F804B088
:104ED000A4F808B0284600F023FCB9F1000F3FF415
:104EE00050AF3046C4F810B050E700006895000895
:104EF0002DE9FF4F8DB00D4616461F460024DDF804
:104F000068808DE8F000DFF868A10494DAF8080002
:104F100001F09FFB1DB128788DF8200000E0089477
:104F20001EB130788DF8240000E009941FB1387864
:104F30008DF8280000E00A940AAB09AA08A90D9888
:104F400000F098F85FEA000913D0DAF8080001F0E1
:104F50007BFB15B19DF82000287016B19DF8240048
:104F6000307017B19DF828003870484611B0BDE880
:104F7000F08FB8F1000F05D0D8F8000010B9D8F8BC
:104F8000040010B3002001F046FB0590DAF8001091
:104F90000091CAF800D0E946DAF8080001F054FBA5
:104FA000B8F1000F1CD0D8F804004FF47A7100F566
:104FB000FA7090FBF1F1D8F8000000EB4002C2EB70
:104FC000C01011EBC0010DD00DE0DAF8080001F0BF
:104FD0003BFB32E02C7032E007B13C700020C5E7AB
:104FE000002100E00121059801F05EFB8346D046D8
:104FF000DAF8080001F02DFBD8F800004946884295
:105000000AD10099C8F8001008E002688A4202D16B
:105010000099016002E010460028F6D1D8F8080097
:1050200001F012FB059801F0F4FABBF1000F04D077
:105030004DB128788DF8200006E0002DCAD1002E51
:10504000CAD03470C8E708941EB130788DF82400B7
:1050500000E009941FB138788DF8280000E00A9428
:105060000AAB09AA08A90D9800F004F8814670E778
:10507000200000202DE9FF4F4FF0000B83B0814648
:105080000F469046DA46CDF800B05C46CDF804B045
:1050900031E0E01704EB507607EBE60004F007017F
:1050A000007801258D40284211D02046FEF76AFF86
:1050B00068B1416819B9B0F90A00002807DD6846EF
:1050C00000EBE6000BF1010B01782943017008EBBE
:1050D000E600007828420DD02046FEF753FF48B185
:1050E000808938B101A800EBE6010BF1010B0878CB
:1050F00028430870641C4C45CBDB9DF800003870D9
:105100009DF8041088F80010069880F800A007B0F9
:105110005846BDE8F08F000070B510464FF0FF35DF
:10512000012918D0022905D0032918D1C1B20F4A8C
:10513000402004E0882A0CD020200C4A002100F0F6
:10514000E9FB04000BD0FDF71BFB411C09D0A0615B
:1051500070BD2120F1E70021044A1020EFE7284626
:1051600070BD204600F05EFBF9E70000513C0008EE
:1051700010B5012001F04FFA034C6060012001F0EE
:105180004AFAA06010BD00002000002030B40022C8
:1051900007E003781C024378801C2343891E1A44CD
:1051A00089B20129F5D811B1007802EB0022100C68
:1051B00010FA82F0010C02D0010C11FA80F030BC20
:1051C00080B2FFF749B900001FB5FCF735FBFCF7CB
:1051D000B9F9FBF7A5F91148FDF78EF910A0FDF715
:1051E0008BF9FCF769FA00F0C5F911A0FDF784F915
:1051F0001FA0FDF781F900200121CDE900100290E8
:1052000003460390802225A1264804F035F826A005
:10521000FDF772F903F0EAFDFEE7000014950008BF
:105220000A0D204C7749505F496E69740D0A0000E1
:105230000A0D204672656552544F532056362E3162
:105240002E30206D795F7365727665725F736F6360
:105250006B65745F696E69743A207379735F746803
:10526000726561645F6E657720485454500D0A0082
:105270000A0D204672656552544F532056362E3122
:105280002E3020785461736B4372656174652054CD
:105290006F67676C654C6564320D0A00535A574C52
:1052A00045443200B92300080A0D20467265655254
:1052B000544F532056362E312E3020537461727461
:1052C000207363686564756C65720D0A00000000E8
:1052D00070B5050019D00D4C2068854215D3606863
:1052E000854212D20021E06801F0EEF8A5F1080035
:1052F00000210171A168884200D2A06000F020FE68
:10530000E068BDE8704001F09FB970BD400000202A
:1053100010B50C480C4C20F003004FF4A051206055
:10532000018000224280027100F5A05001226060DD
:10533000027101804180104601F06DF9E060206843
:10534000A06010BD53020020400000202DE9F04174
:1053500000280CD0C01C20F0030086B24FF4A058E7
:105360000C2E01D20C2604E0464502D90020BDE8EF
:10537000F081254D0021E86801F0A6F8AB682968A6
:10538000C6F5A052581A80B238E00C1827799FBB96
:1053900027883F1A083FB7422FD322884FF0010CCD
:1053A000171A083F06F11402974211D382190832E6
:1053B00096B28A1900271771278817805080268097
:1053C00084F804C01088404504D08A1C865201E04D
:1053D00084F804C09C4209D1D5E9012003792BB19E
:1053E000904203D000880844A860F7E7E86801F01D
:1053F0002BF904F10800BAE7FFE7085A8242C4DC3F
:10540000E86801F021F9B1E7400000202DE9F05FE4
:105410000646C91C21F0030084B24FF4A05B0C2C9B
:1054200001D20C2401E05C4511D82D4801688E4260
:1054300011D3426896420ED2A6F10805691A8FB2BE
:105440002988C91B08391FFA81F94C4502D9002067
:10545000BDE8F09F01D13046FAE782460021C068DE
:1054600001F032F82988DAF800004FF000080A1835
:105470001179E9B104F11401494514D839190831F9
:105480008AB2DAF808408118A14201D2CAF808109D
:1054900081F804802B880B804F802A800988594529
:1054A00001D0801C0A52DAF80C0001F0CDF8D2E7E6
:1054B00039190831DAF80840138889B2944202D1C8
:1054C0004218CAF80820421882F8048013805780D6
:1054D000298012885A45E6D0801C1152E3E700006B
:1054E00040000020002905D0034A52F820300B600C
:1054F00042F820107047000064160020F0B500202C
:10550000401C80B20C28FBD31048104B20F0030243
:1055100000200F4D0746333B05F1180443F8207077
:10552000002109E053F82060166043F8202035F888
:105530001060491C324489B234F810608E42F1D8B0
:10554000401C80B20C28E9D3F0BD00009716002063
:10555000A495000801460C2801D300207047044A96
:1055600052F821000028F9D0036842F82130704732
:10557000641600201FB50821042003F007FD104920
:105580000860B0B100200221CDE90010029003466E
:1055900003904FF47A720BA10F4803F06DFE0320C5
:1055A00000904FF4FA7300220C490DA001F09CF812
:1055B0001FBD04B00DA0BDE81040FCF79DBF00006A
:1055C0001C00002068616E646C654C6F6E67436FF1
:1055D0006E6E5461736B0000A13F00081156000805
:1055E0004D79536F636B65740000000063726561F1
:1055F0007420784E6577436F6E6E517565206661D5
:10560000696C65642E2E2E2E2E2E2E0D0A000000A3
:1056100070B58EB020A0FCF76FFF002201210220A0
:10562000FFF77AFD051E01DA21A011E002208DF8B6
:105630000D005020FEF710FFADF80E000020049082
:10564000102203A92846FFF709FB002804DA1EA050
:10565000FCF752FF0EB070BD05212846FFF758FB3E
:1056600010200C9008A81D4E02900CAA08A92846EC
:10567000FFF766FA0446019000230A2201A9306868
:1056800003F040FD0128F0D015A0FCF735FF2046BF
:10569000FFF710FBE9E700007374617274206D7905
:1056A000536F636B6574207461736B0D0A000000A7
:1056B00063616E206E6F7420637265617465207320
:1056C0006F636B657400000063616E206E6F742001
:1056D00062696E6420736F636B6574001C00002048
:1056E0006661696C20616464696E6720746F2078FC
:1056F0004E6577436F6E6E51756520616E642061F3
:10570000626F757420746F20636C6F7365207468AA
:10571000697320636F6E6E6563740D0A000000008C
:1057200010B504000CD0206820B100F041FB00202F
:10573000606020602146BDE810400520FFF7D2BE22
:1057400010BD000010B586B0040017D060690028B5
:1057500012D00022694600F083FEA36A1BB100222A
:10576000012120469847009828B10548CDE9010459
:1057700001A802F04DFF009806B010BD0020FBE725
:10578000B13600082DE9F04106460F460620FFF726
:10579000E1FE040024D000252572267006F0F001F9
:1057A0004FF4FA606560102905D0202903D0402904
:1057B00002D1002600E00646002000F02CFFE06049
:1057C00080B1304600F007FF206188B165616570E7
:1057D0004FF0FF30A762A061A58325622046656275
:1057E000BDE8F08121460620FFF77CFE0020F7E7A8
:1057F000E06800F00EFFF5E710B586B004000CD0AD
:105800000748CDE900040291ADF80C20684602F08B
:10581000FFFE94F9080006B010BD6FF00900FAE72A
:105820002134000810B586B004000AD00648CDE93E
:105830000004684602F0ECFE00206060204600F0A4
:1058400005F806B0002010BD2535000838B504461F
:105850000069002530B90FE02078102800980ED09C
:10586000FFF75EFF6946206900F020FE401CF3D17F
:10587000206900F0A7FE2561606940B911E00028A9
:10588000F0D000F095FAEDE70098FFF7CBFF6946FE
:10589000606900F00BFE401CF6D1606900F092FEDA
:1058A0006561E06800F0B5FE21460620E560FFF77F
:1058B00019FE38BD10B5040086B06FF009000FD096
:1058C00000290DD0002A0BD00648CDE90004CDE90F
:1058D00002128DF81030684602F09AFE94F9080022
:1058E00006B010BD8D35000810B586B004000BD091
:1058F0000748CDE900048DF80810684602F088FEDC
:1059000094F9080006B010BD6FF00900FAE7000036
:105910000136000830B50D4685B01146FFF732FF5D
:10592000040016D00C4800908DF808506846019489
:1059300002F06EFE207A60B1E06800F06AFE206935
:1059400000F040FE21460620FFF7CCFD002005B008
:1059500030BD2046FBE700009536000830B589B021
:105960004FF000050400009555D020696FF0070145
:10597000E0B194F9082012F1040F4CDB2278102AD0
:1059800016D00022694600F06BFD009858B10268FD
:10599000A18B1289891AA183A36A23B1006801210E
:1059A000028920469847009809B030BD217232E044
:1059B00060780228FAD00520FFF7CCFD009058B19E
:1059C000002202A9206900F04BFD029830B1028943
:1059D000A08B801AA08302E0FF201BE00022A36AB4
:1059E00013B1012120469847029961B100980160E6
:1059F0000299416085810C498560CDE9041460B14C
:105A0000006800890AE005200099FFF76BFD207A05
:105A100008B9F92020720020C6E70120ADF818006F
:105A200004A802F0F5FDBEE7B13600082DE9F0410B
:105A30000446DDE906570020089E6060A060E06033
:105A400084F831002062E5610A4D6062287884F8AC
:105A50003400401C28702046266100F012F82046D1
:105A6000B84710B10020BDE8F0816868206020468A
:105A70006C60F8E75000002090F8310000F0010061
:105A8000704770B5064614461D4600F01FF82146C3
:105A9000304600F04DF829463046BDE8704000F031
:105AA00010B80000014988607047000050000020D5
:105AB00090F83110CA0703D021F0010180F83110AD
:105AC000704701B10968C1607047000070B50546B4
:105AD0000C460868696888421ED0134800680AE0CE
